:020000040800F2
:10000000500700200101000819260008151A0008F1
:10001000F12000084D0F00087538000800000000AE
:10002000000000000000000000000000F92E0008A1
:10003000950F00080000000019290008E52F0008AE
:100040001B0100081B0100081B0100081B01000820
:100050001B0100081B0100081B0100081B01000810
:100060001B0100081B0100081B0100081B01000800
:100070001B0100081B0100081B0100081B010008F0
:100080001B0100081B0100081B0100081B010008E0
:100090001B0100081B0100081B0100081B010008D0
:1000A0001B0100081B0100081B0100081B010008C0
:1000B0001B0100081B010008F93100081B010008A2
:1000C0001B0100081B0100081B0100081B010008A0
:1000D0001B010008FD3500081B0100081B0100087A
:1000E0001B0100081B0100081B010008DFF80CD0F1
:1000F00000F0DCFB004800472940000850070020C2
:100100000648804706480047FEE7FEE7FEE7FEE7B1
:10011000FEE7FEE7FEE7FEE7FEE7FEE7F52F000855
:10012000ED00000840EA01039B0703D009E008C97D
:10013000121F08C0042AFAD203E011F8013B00F8AC
:10014000013B521EF9D27047D2B201E000F8012BF8
:10015000491EFBD270470022F6E710B513460A4647
:1001600004461946FFF7F0FF204610BDF0B480EAC0
:100170000102D40F4200B2EB410F02D20246084600
:1001800011464A0042D0C30DDDB2C1F3C752AD1AC9
:10019000202D35DAC1F3160141F4000204B15242B8
:1001A000C5F1200602FA06F12A411044B3EBD05FF4
:1001B00023D0C4B1012DA0EBC35009DCF0BC4FF03B
:1001C000004202EAC352DBB200F5000000F05CBA64
:1001D000400000F1807000EBC350A0F1807040EA55
:1001E000D170490009E0490841EAC071A0EBC35051
:1001F00000F50000400800EBC350F0BC00F03BBA33
:100200006142012202EB4101001BF6E7F0BC70479E
:1002100081F00041AAE780F00040A7E780EA0102F0
:1002200010B502F00043400022D04A001FD0010E5A
:1002300001EB1261C0F35600C2F3560240F4000015
:1002400042F40002A0FB022000047F39140400D015
:10025000401C50EA124001D44000491EC2B20C06B4
:1002600004EBD010401C4008802A02D003E000209C
:1002700010BD20F00100002900DA0020184310BD55
:1002800030B480EA010202F0004530F0004221F073
:10029000004013D090B1C30DD40DC2F31601C0F3CA
:1002A0001600E41A41F4000140F400027D3491424A
:1002B00001D3641C00E04900002C02DA30BC0020AD
:1002C00070474FF400000023914201D3891A034381
:1002D00040084FEA4101F7D151B1914202D14FF0AC
:1002E000004105E002D24FF0010101E06FF0010191
:1002F00003EBC450284430BC00F0BDB92DE9FE4FDB
:10030000804681EA0300C00F0C46009021F00041B6
:1003100023F00045B8EB0200A94105D24046214632
:1003200090461C460B46024623F00040104347D03F
:10033000270DC7F30A00C3F30A510290401A019037
:1003400040286BDAC3F3130040F4801B00989246F8
:1003500020B10023D2EB030A63EB0B0B0198594643
:10036000C0F14002504600F065F906460D46504681
:100370005946019A00F06DF910EB08006141002424
:1003800087EA115284EAE7731A4340D0009A62B3B5
:10039000019A012A4FEA075215DC001B61EB0201AA
:1003A0004FF0004202EA0752CDE90042001C41F53D
:1003B000801132462B4600F0A4F903B0BDE8F08F5F
:1003C00040462146F9E7001B61EB0201001C41F5A4
:1003D000801300185B412018A2F5001747EB0301BA
:1003E00040EAD570B6196D4111E06D084FEA360646
:1003F00045EAC0754FEA0752001B61EB0201001C81
:1004000041F5801149084FEA300000195141324648
:100410002B4603B0BDE8F04F00F064B9009801220C
:1004200040000023D0EB020263EBE073009821460A
:100430004FEAE074B8EB000061EB0401E9E783F0F8
:1004400000435BE781F0004158E72DE9FE4F81EA68
:10045000030404F0004421F0004100944FF0000B2D
:1004600023F0004350EA01045ED052EA03045BD05B
:10047000C3F30A54C1F30A552C44A4F2F334019493
:10048000A0FB0254C1F3130141F48011C3F3130321
:1004900043F4801301FB024400FB034E840A970AD5
:1004A00044EA815447EA8357A4FB076802958D0A02
:1004B00005FB07854FEA932C04FB0C542705029D8E
:1004C0004FEA065847EA1637B5EB08056EEB070CFE
:1004D000870E920E47EA811742EA8312A7FB0201B8
:1004E000B6EB0B0164EB00042B0D43EA0C335E18F2
:1004F00044EB1C50DA465146E7FB0201C5F31304F6
:100500004FEA0B3343EA14534FEA0432019C43EAA7
:100510000603A4F10C040294009CCDE900B400F0A1
:10052000F0F803B0BDE8F08F00200146F9E7C10FF5
:1005300080EAE0700844CA079623002100F0A4B8BE
:1005400096230022114600F09FB800F0004220F0F0
:100550000040C10DC0F3160040F400007F2901DA0D
:1005600000207047962903DCC1F19601C84001E0E4
:1005700096398840002AF4D04042704700F000428B
:1005800030F000400AD0C10D01F56071C0F31600D3
:1005900042EA0151C208400711437047002001465A
:1005A0007047000030B5041E71F1000404DB4FF009
:1005B0000044404264EB0101141E73F1000405DBAA
:1005C0001C464FF00043524263EB0403994208BFBC
:1005D000904230BD01F0004330B421F0004150EAB8
:1005E000010206D00A0DA2F56072C1F31301002AC0
:1005F00002DC30BC00207047440F44EAC104C10053
:10060000E01830BC00EBC25000F035B8002801DB28
:10061000C0F10040002901DBC1F100418142704777
:10062000002801DBC0F10040002901DBC1F10041DD
:1006300088427047202A04DB203A00FA02F10020A9
:1006400070479140C2F1200320FA03F31943904010
:100650007047202A06DBCB17203A41FA02F043EA22
:10066000E07306E041FA02F3D040C2F1200291406B
:100670000843194670470029A8BF7047401C49002D
:1006800008BF20F00100704710B4B0FA80FC00FAF7
:100690000CF050EA010404BF10BC704749B1CCF122
:1006A000200421FA04F411FA0CF118BF01212143AE
:1006B0000843A3EB0C01CB1D4FEA00614FEA102069
:1006C00042BF002010BC704700EBC350104400290B
:1006D000A4BF10BC7047401C490008BF20F00100B7
:1006E00010BC704710B5141E73F1000408DA401CEA
:1006F00041F1000192185B411A4301D120F0010041
:1007000010BD2DE9F04D92469B4611B1B1FA81F230
:1007100002E0B0FA80F220329046FFF78BFF0446E9
:100720000F4640EA0A0041EA0B0153465A46084385
:1007300013D0114653EA010019D0C8F140025046C7
:1007400000F0C6F805460E46504659464246FFF7A9
:1007500071FF084305D0012004E020463946BDE87A
:10076000F08D0020054346EAE0762C4337430A9893
:100770006305E40AA0EB08000022FD0A44EA47549E
:100780000A3002D500200146E9E701051019694148
:10079000DDE9084500196941BDE8F04DA2E72DE902
:1007A000F04D81EA030404F0004B21F000451446AB
:1007B0004FF0000A23F0004150EA050220D054EA2D
:1007C00001021DD0C5F30A570246C5F31303C1F356
:1007D0001300C1F30A5640F4801543F48013A7EBCD
:1007E0000608101BD64608F2FD3873EB050002D34D
:1007F00008F1010801E092185B41B8F1000F03DA3B
:1008000000200146BDE8F08D00204FF4801106461F
:1008100084460EE0171B73EB050705D3121B63EB31
:10082000050306434CEA010C49084FEA30009218D0
:100830005B4150EA0107EDD152EA030012D082EA8F
:10084000040083EA0501084305D0101BAB4106D222
:100850000122002306E000224FF0004302E06FF087
:10086000010253101AEB06004CEB085110EB0A0082
:1008700041EB0B01BDE8F04DFFF734BF70B521F03F
:10088000004303430CD0C1F30A550024D5EB040503
:1008900064EB0403D617AD1AB34102DB0020014616
:1008A00070BD201841EB025170BD0000064C074D91
:1008B00006E0E06840F0010394E807009847103430
:1008C000AC42F6D3FFF716FC6844000888440008E1
:1008D000202A04DB203A21FA02F00021704721FA95
:1008E00002F3D040C2F120029140084319467047FC
:1008F0002DE9F04D00231A461B1A8A4103DB002024
:100900000146BDE8F08DC1F30A52C1F3130141F471
:1009100080154FF0000BD10702D100186D41521E17
:100920000027044640F2FF11384601EB620A3E46BA
:100930008046024600204FF48011FFF7C9FFC2191C
:100940007141BB1846EB0100B4EB030C75EB000CD6
:1009500004D3E41A65EB000517460E46241908F186
:1009600001006D4180463428E3DDF91946EB0600AD
:10097000091BA84103D24FF0FF32134601E00022C9
:1009800013461BEB070046EB0A51BDE8F04DFFF79D
:10099000A9BE10B501F0DCFA01F08CFF01F082FB7A
:1009A00001F0FCFD02F0D8FD01F036FF02F052FB31
:1009B00002F0A0FB02F0EEFB10BD000010B50446F3
:1009C00094F9020011281FD008DC012839D0022830
:1009D00038D0032853D0102852D108E0122820D054
:1009E00013282BD014282AD0152849D128E02648CE
:1009F000007820F00100401C234908701222211DBC
:100A00002248FFF78FFB3CE01222211D2048FFF710
:100A100089FB1D48007820F00200801C1A490870EC
:100A20002FE01222211D1B48FFF77CFB164800789F
:100A300020F00400001D1449087022E021E020E0AD
:100A40001FE01EE02079212813D004DC012807D004
:100A5000022811D10CE0A0280CD0A1280CD10AE06A
:100A60000948007820F0400040300749087004E051
:100A700003E002E001E000E000BF00BF01E000E0B1
:100A800000BF00BF10BD00003A0000201001002090
:100A900022010020340100202DE9F04F87B00746E5
:100AA000022601AC4FF000084FF000094FF0000A99
:100AB000162F7CD2DFE807F0CEA49493CECD91A37D
:100AC000CECECECECECECECE0B12191E1F20DFF84C
:100AD000F081DFF8F091DFF8F0A10EE0DFF8EC81B3
:100AE000DFF8EC91DFF8ECA107E0DFF8EC81DFF84C
:100AF000EC9102E000BF00BF00BFB8F1000F20D0B2
:100B0000D8F810007649FFF789FB8346FFF71DFDF3
:100B100000B2ADF80800D8F814007149FFF77EFB69
:100B20008346FFF712FD00B2ADF80A00D8F81800AE
:100B30006B49FFF773FB8346FFF707FD00B2ADF883
:100B40000C00B9F1000F20D0D9F810006449FFF76C
:100B500065FB8346FFF7F9FC00B2ADF80E00D9F84B
:100B600014005F49FFF75AFB8346FFF7EEFC00B223
:100B7000ADF81000D9F818005949FFF74FFB83462C
:100B8000FFF7E3FC00B2ADF81200BAF1000F22D07B
:100B9000DAF810005249FFF741FB8346FFF7D5FC16
:100BA00000B2ADF81400DAF814004D4900E051E04D
:100BB000FFF734FB8346FFF7C8FC00B2ADF8160020
:100BC000DAF818004649FFF729FB8346FFF7BDFC1A
:100BD00000B2ADF8180012263DE008263BE03AE0EE
:100BE00040480168029141680391806804903E4842
:100BF000016805918088ADF8180012262BE02AE0E4
:100C00003A48006880F0004039490090FFF706FB41
:100C10008346FFF79AFC00B2ADF8080033494868F4
:100C20003349FFF7FBFA8346FFF78FFC00B2ADF8BC
:100C30000A002E48806880F000402D490090FFF7A0
:100C4000EDFA8346FFF781FC00B2ADF80C000626F2
:100C500001E000E000BF00BF4AF6AA20ADF80400A2
:100C600046EA072000B2ADF806005421301D215499
:100C700002251AE06057691C615648406055681C9F
:100C8000205661574840691C60546057615648407F
:100C90006055615D681C205C0144301D205C084487
:100CA00041B2301D2154A81CC5B2301D8542E1DB84
:100CB000701DC1B2204602F023FD07B0BDE8F08FE1
:100CC00088010020BC010020F00100205802002013
:100CD000240200208C020020C0020020F402002028
:100CE00000007A4460010020480000206C010020D0
:100CF0000000C8422DE9F8438648007820B1012859
:100D000006D0022872D116E0012082490870FEE068
:100D10000220FFF7C1FE012003F048F90120FFF790
:100D2000BBFE012003F042F97B48007810B102209D
:100D300078490870EBE07848007810B901207549CF
:100D4000087075480078C0F38010B8B11020FFF724
:100D5000A3FE012003F02AF91120FFF79DFE0120D8
:100D600003F024F91220FFF797FE012003F01EF98B
:100D70006948007820F040006749087066480078AC
:100D800000F03F0000287DD00025002600276248A3
:100D9000007800F0010050B1604D614E614F624C2F
:100DA0005D48007820F001005B49087020E05A4857
:100DB0000078C0F3400050B15C4D5D4E5D4F5E4C1D
:100DC0005548007820F002005349087010E052485E
:100DD0000078C0F3800050B1584D594E594C4E48E0
:100DE000007820F004004C49087001E08EE08EE0AD
:100DF00065B320788DF8010060788DF80000BDF8AB
:100E00000000FFF79DFB80464F49FFF739FA286144
:100E1000A0788DF80100E0788DF80000BDF80000A2
:100E2000FFF78EFB80464849FFF72AFA6861207970
:100E30008DF8010060798DF80000BDF80000FFF723
:100E40007FFB80464049FFF71BFAA86176B3A07983
:100E50008DF80100E0798DF80000BDF80000FFF783
:100E60006FFB80463849FFF70BFA3061207A8DF826
:100E70000100607A8DF80000BDF80000FFF760FB0C
:100E8000804600E041E03049FFF7FAF97061A07A4E
:100E90008DF80100E07A8DF80000BDF80000FFF742
:100EA0004FFB80462849FFF7EBF9B06167B3207B21
:100EB0008DF80100607B8DF80000BDF80000FFF7A1
:100EC0003FFB80462049FFF7DBF93861A07B8DF8B6
:100ED0000100E07B8DF80000BDF80000FFF730FB5B
:100EE00080461949FFF7CCF97861207C8DF8010024
:100EF000607C8DF80000BDF80000FFF721FB804604
:100F00001149FFF7BDF9B86100BF00E000BF00BFA5
:100F1000BDE8F8833B0000203A0000208801002053
:100F2000BC010020F0010020100100205802002028
:100F3000240200208C02002022010020C002002098
:100F4000F40200203401002000007A4400BFFEE7D4
:100F500070B506460C4615462946204603F00AF9A8
:100F6000A06A30602946304603F004F970BD0000E5
:100F700000B585B0684601F0BBFD04490098B0FBA0
:100F8000F1F00349086005B000BD000040420F00C9
:100F9000500000207047000070B5044642480078B9
:100FA000012806D00B280BD01F2817D0FF286FD19F
:100FB00065E03E48007810B10B203B4908706BE0BB
:100FC00008213B4803F0C0F800203A494862086015
:100FD000394988601F20344908705DE03749B1F90C
:100FE0000600FFF7A4FA0546354801682846FFF7D2
:100FF00015F9344948623149B1F90800FFF797FA09
:1010000005462F4801682846FFF708F92E4948622F
:101010002A49B1F90A00FFF78AFA0546284801680B
:101020002846FFF7FBF829494862234840682849C9
:10103000486221480068274948621F4880681D4966
:1010400048622146234803F095F82248806A1D49EA
:10105000086021461B4803F08DF821461C4803F028
:1010600089F81B48806A184908602146164803F031
:1010700081F822460F491548FFF76AFF0CE0082166
:101080000B4803F061F801200749087004E0FFE70E
:10109000FF200549087000BF00BF0448007810B960
:1010A000FF200149087070BD380000204E0000206C
:1010B000100000208C0200206C0100206001002044
:1010C0006043000888010020BC010020F0010020DE
:1010D00024020020580200202DE9F041024600259C
:1010E0000026002000230024002791F803C00CF004
:1010F0000F0591F803C00CF0100CBCF1000F03D0E9
:1011000091F802C04CEA050591F800C0BCF1000F4F
:1011100031D0146800202BE04FF0010C0CFA00F3E2
:10112000B1F800C00CEA03069E4220D183004FF0C4
:101130000F0C0CFA03F7BC4305FA03FC4CEA040459
:1011400091F803C0BCF1280F06D14FF0010C0CFA46
:1011500000FCC2F814C00AE091F803C0BCF1480FCB
:1011600005D14FF0010C0CFA00FCC2F810C0401C75
:101170000828D1D31460B1F800C0BCF1FF0F34DDF2
:10118000546800202EE000F1080C4FF0010808FA26
:101190000CF3B1F800C00CEA03069E4221D1830093
:1011A0004FF00F0C0CFA03F7BC4305FA03FC4CEAB2
:1011B000040491F803C0BCF1280F05D100F1080C1C
:1011C00008FA0CF8C2F8148091F803C0BCF1480F7B
:1011D00007D100F1080C4FF0010808FA0CF8C2F82A
:1011E0001080401C0828CED35460BDE8F081000078
:1011F000F0B50A46002300240021002500F0004637
:10120000B6F1004F02D11D4EF16901E01B4E71682D
:10121000C0F3034583B200F44016B6F5401F08D171
:1012200021F07061154E766826F07066134F7E606F
:1012300012E000F48016B6F5801F06D1032606FAE8
:1012400005F4A14341F0706106E0460D360103FA52
:1012500006F6B14341F0706122B1460D360103FA42
:1012600006F6314300F00046B6F1004F02D1034EBE
:10127000F16101E0014E7160F0BD0000000001402D
:101280000161704707B5A4B04FF07C512698FEF776
:10129000C5FF1190FE4880680D90FD4800680C90D5
:1012A0000D99FEF7BBFF0F90F948C0680D90F84804
:1012B00040680C900D99FEF7B1FF0E900F99FEF764
:1012C000A7FF4FF080411090FEF7A8FF2090F04854
:1012D000C0680D90EE4880680C900D99FEF79EFF57
:1012E0000F90EB4840680D90E94800680C900D990C
:1012F000FEF794FF0E900F99FEF738FF4FF08041F4
:101300001090FEF78BFF2190E14880680C90E04838
:1013100080680B900C99FEF781FF0E90DC484068C6
:101320000C90DB4840680B900C99FEF777FF0D900E
:101330000E99FEF71BFF4FF080410F90FEF76EFFF6
:101340004FF07E511090FEF766FF2290D148B0F921
:1013500004000B90FFF7EBF80D90CE48B0F90400B5
:101360000B90FFF7E4F80C900D99FEF757FF0F90E4
:10137000C848B0F902000990FFF7D9F80B90C548AA
:10138000B0F902000990FFF7D2F80A900B99FEF726
:1013900045FF0D90BF48B0F900000990FFF7C7F86E
:1013A0000B90BC48B0F900000990FFF7C0F80A9014
:1013B0000B99FEF733FF0C900D99FEF7D7FE0E90B8
:1013C0000F99FEF7D3FE109001F04AFBB249086076
:1013D0002498B0F900000F90FFF7A9F81090AE48DC
:1013E00001681098FEF71AFF1D902498B0F90200CA
:1013F0000F90FFF79CF81090A74801681098FEF72F
:101400000DFF1E902498B0F904000F90FFF78FF89D
:101410001090A14801681098FEF700FF1F902198D6
:101420000E901F980D900E99FEF7F8FE10902298DE
:101430000E901E980D900E99FEF7F0FE0F901099E9
:10144000FEF7E6FE179022980E901D980D900E99CB
:10145000FEF7E4FE109020980E901F980D900E99C4
:10146000FEF7DCFE0F901099FEF7D2FE1890209840
:101470000E901E980D900E99FEF7D0FE10902198B8
:101480000E901D980D900E99FEF7C8FE0F901099C2
:10149000FEF7BEFE199017980F90804801680F98CC
:1014A000FEF7BCFE10907E48006801460F90109831
:1014B000FEF75CFE7A49086018980F90774801683B
:1014C0000F98FEF7ABFE10907548406801460F90EC
:1014D0001098FEF74BFE7249486019980F906F48BC
:1014E00001680F98FEF79AFE10906D4880680146DB
:1014F0000F901098FEF73AFE6949886017980146E8
:101500000D9068480068FEF789FE0F902498B0F9A6
:1015100006000C90FFF70BF80D90634801680D98DA
:10152000FEF77CFE0E900F99FEF720FE10905C48AF
:10153000006801460F901098FEF718FE1A90189850
:1015400001460D9057480068FEF768FE0F902498FA
:10155000B0F908000C90FEF7EAFF0D9052480168C0
:101560000D98FEF75BFE0E900F99FEF7FFFD1090B1
:101570004B48406801460F901098FEF7F7FD1B900E
:10158000199801460D9047480068FEF747FE0F90F6
:101590002498B0F90A000C90FEF7C9FF0D9042485C
:1015A00001680D98FEF73AFE0E900F99FEF7DEFDEA
:1015B00010903B48806801460F901098FEF7D6FDCA
:1015C0001C901C980D903248C0680C900D99FEF745
:1015D00025FE0F901B980B902D4880680A900B9960
:1015E000FEF71CFE0D902A48406880F000400B90EA
:1015F0001A9801460A900B98FEF710FE0C900D9970
:10160000FEF706FE0E900F99FEF702FE109011995C
:10161000FEF704FE16901C980D901D4880680C90F3
:101620000D99FEF7FBFD0F901B980B901848C068B2
:101630000A900B99FEF7F2FD0D901A980B90144842
:1016400000680A900B99FEF7E9FD0C900D99FEF7E2
:10165000DFFD0E900F99FEF789FD10901199FEF7AE
:10166000DDFD15901C980D90094840680C900D996F
:10167000FEF7D4FD0F901B980B90054800680A9068
:101680000B99FEF7CBFD0D901A980B9000480DE0DA
:101690006000002060010020540000205C00002059
:1016A000280300205800002064430008C0680A9006
:1016B0000B99FEF7B3FD0C900D99FEF757FD0E90B8
:1016C0000F99FEF7A5FD10901199FEF7A7FD149054
:1016D0001C980D90B94800680C900D99FEF79EFD7E
:1016E0000F901B980B90B54840680A900B99FEF735
:1016F00095FD0D90B148806880F000400B901A98DD
:1017000001460A900B98FEF789FD0C900D99FEF7A3
:101710002DFD0E900F99FEF729FD10901199FEF7FF
:101720007DFD1390A548006810901699FEF71EFDE8
:10173000A24908600846406810901599FEF716FD0A
:101740009E4948600846806810901499FEF70EFD87
:101750009A4988600846C06810901399FEF706FD04
:101760009649C8600846C0680D900846C0680C904D
:101770000D99FEF753FD0F90904880680B908F48AD
:1017800080680A900B99FEF749FD0D908B484068E0
:1017900009908A48406808900999FEF73FFD0B9030
:1017A0008648006809908548006808900999FEF706
:1017B00035FD0A900B99FEF7D9FC0C900D99FEF7B8
:1017C000D5FC0E900F99FEF7D1FC109001F048F96E
:1017D00012907A48006810901299FEF71FFD774921
:1017E00008600846406810901299FEF717FD73498B
:1017F00048600846806810901299FEF70FFD6F4907
:1018000088600846C06810901299FEF707FD6B4982
:10181000C8602498B0F90A000E90FEF788FE0F9079
:10182000674801680F98FEF7F9FC10906549109819
:10183000FEF7F6FE04D364491098FEF7E7FE0DD2DA
:1018400026991098FEF7EAFC0F90259880680146CB
:101850000E900F98FEF78AFC259988605B48006817
:10186000FEF78CFECDE90C01544840680146039018
:101870004FF08040FEF7D2FC04905048C06801460B
:1018800003900498FEF7CAFC06904C480068014695
:1018900003904FF08040FEF7C1FC049047488068F9
:1018A000014603900498FEF7B9FC05900699FEF7EF
:1018B000AFFC0790FEF762FECDE9080102F06EF87A
:1018C000CDE90A01DDE90C23FEF7BFFDCDE90E01EC
:1018D000FEF780FE259948603C480068FEF74EFE02
:1018E000CDE90C0135488068014601904FF08040F9
:1018F000FEF794FC029031488068014601900298FE
:10190000FEF78CFC04902D484068014600904FF093
:101910008040FEF783FC0190284840680146009013
:101920000198FEF77BFC4FF07E510290FEF773FCAE
:1019300003900499FEF76CFC0590FEF71FFECDE9BD
:1019400008011E480068014601904FF08040FEF7F4
:1019500065FC029019484068014601900298FEF724
:101960005DFC049015488068014601904FF080406E
:10197000FEF754FC02901148C0680146019002989D
:10198000FEF74CFC03900499FEF7F0FB0590FEF780
:10199000F5FDCDE90601DDE9082302F047FACDE9BE
:1019A0000A01DDE90C23FEF750FDCDE90E01FEF73B
:1019B00011FE2599086027B000BD000060000020DE
:1019C0006043000800004040000040C05843000849
:1019D00000BF0E4801684FF0E02082690B480068A4
:1019E0008142F6D10A48006800EB4003C3EBC01007
:1019F000C2EBC000064B1B68B0FBF3F001EB4103E8
:101A0000C3EBC11300EBC30070470000440000208B
:101A10005000002000BFFEE708B54FF48060324957
:101A200008600120009004E09DF80000401EC0B254
:101A300000909DF800000028F6D14FF400602A497C
:101A400008600120009004E09DF80000401EC0B234
:101A500000909DF800000028F6D14FF480602249E4
:101A6000091F08600120009004E09DF80000401E5E
:101A7000C0B200909DF800000028F6D1012000902F
:101A800004E09DF80000401EC0B200909DF80000E8
:101A90000028F6D10120009004E09DF80000401ECF
:101AA000C0B200909DF800000028F6D101200090FF
:101AB00004E09DF80000401EC0B200909DF80000B8
:101AC0000028F6D14FF4806007490860012000909B
:101AD00004E09DF80000401EC0B200909DF8000098
:101AE0000028F6D108BD0000140C014008B54FF4E1
:101AF0008060324908600120009004E09DF80000F9
:101B0000401EC0B200909DF800000028F6D14FF4AE
:101B100000602A49091F08600120009004E09DF838
:101B20000000401EC0B200909DF800000028F6D1D1
:101B30004FF480602149091F08600120009004E0F3
:101B40009DF80000401EC0B200909DF800000028E3
:101B5000F6D10120009004E09DF80000401EC0B2C4
:101B600000909DF800000028F6D10120009004E0CC
:101B70009DF80000401EC0B200909DF800000028B3
:101B8000F6D10120009004E09DF80000401EC0B294
:101B900000909DF800000028F6D14FF480600749BE
:101BA00008600120009004E09DF80000401EC0B2D3
:101BB00000909DF800000028F6D108BD140C0140EB
:101BC00008B5082100200A022E4B1A604EE042069A
:101BD000100E4FF480622B4B1B1D1A6001220092E5
:101BE00004E09DF80020521ED2B200929DF8002021
:101BF000002AF6D10122009204E09DF80020521E36
:101C0000D2B200929DF80020002AF6D14FF48062F3
:101C10001C4B1A600122009204E09DF80020521E25
:101C2000D2B200929DF80020002AF6D10122009243
:101C300004E09DF80020521ED2B200929DF80020D0
:101C4000002AF6D10122009204E09DF80020521EE5
:101C5000D2B200929DF80020002AF6D1094A083A33
:101C6000126802F400620AB140F001000A1EA1F1FC
:101C70000103D9B2ABD14FF48062024B1B1D1A6035
:101C800008BD0000100C014008B5082154E04FF4D5
:101C900080622E4B1A600122009204E09DF8002021
:101CA000521ED2B200929DF80020002AF6D100F018
:101CB00080022AB14FF40062244B1B1F1A6003E01C
:101CC0004FF40062214B1A604206100E012200926E
:101CD00004E09DF80020521ED2B200929DF8002030
:101CE000002AF6D14FF48062184B1B1F1A600122A4
:101CF000009204E09DF80020521ED2B200929DF89E
:101D00000020002AF6D10122009204E09DF8002074
:101D1000521ED2B200929DF80020002AF6D1012274
:101D2000009204E09DF80020521ED2B200929DF86D
:101D30000020002AF6D100BF0A1EA1F10103D9B28A
:101D4000A5D14FF48062014B1A6008BD140C01400C
:101D500008B54FF400602449086040100860012075
:101D6000009004E09DF80000401EC0B200909DF875
:101D700000000028F6D11C480838006808B9012086
:101D800000E0002000F4006008B1012008BD4FF41D
:101D900000601549091D08600120009004E09DF8CD
:101DA0000000401EC0B200909DF800000028F6D14F
:101DB0000D480838006800F4006008B10120E5E72C
:101DC0004FF480600849091D08600120009004E07C
:101DD0009DF80000401EC0B200909DF80000002851
:101DE000F6D100BFD2E70000100C014008B54FF457
:101DF0008060264908600120009004E09DF8000002
:101E0000401EC0B200909DF800000028F6D14FF4AB
:101E100000601E4908600120009004E09DF8000069
:101E2000401EC0B200909DF800000028F6D10120AD
:101E3000009004E09DF80000401EC0B200909DF8A4
:101E400000000028F6D14FF480601049091F086097
:101E50000120009004E09DF80000401EC0B20090F8
:101E60009DF800000028F6D14FF400600749091FD3
:101E700008600120009004E09DF80000401EC0B200
:101E800000909DF800000028F6D108BD140C014018
:101E900008B54FF480602D4908600120009004E0EF
:101EA0009DF80000401EC0B200909DF80000002880
:101EB000F6D14FF400602549091F08600120009009
:101EC00004E09DF80000401EC0B200909DF80000A4
:101ED0000028F6D14FF480601C49091F08600120DA
:101EE000009004E09DF80000401EC0B200909DF8F4
:101EF00000000028F6D10120009004E09DF80000C9
:101F0000401EC0B200909DF800000028F6D10120CC
:101F1000009004E09DF80000401EC0B200909DF8C3
:101F200000000028F6D109480C38006800F4006071
:101F300028B14FF4806005490860012008BD4FF4C6
:101F40008060024908600020F8E70000140C01409E
:101F500008B50121082000F0BBFD4FF44060ADF84A
:101F6000000003208DF8020014208DF8030069465C
:101F70000148FFF7B1F808BD000C014070B50446F8
:101F80000D460026FFF7E4FE012800D170BD204673
:101F9000FFF77AFEFFF77CFF012803D1FFF726FF4A
:101FA0000120F3E72846FFF76FFEFFF771FFFFF709
:101FB0001DFFFFF7CDFE611CC8B2FFF765FEFFF7FE
:101FC00067FF012803D1FFF711FF0120DEE7FFF7CC
:101FD000F7FD0646FFF78AFDFFF708FF70B2D5E769
:101FE00070B506460C461546FFF7B2FE012800D133
:101FF00070BD3046FFF748FEFFF74AFF012803D1C6
:10200000FFF7F4FE0120F3E72046FFF73DFEFFF760
:102010003FFF2846FFF738FEFFF73AFFFFF7E6FEDF
:102020000020E5E72DE9F04106460F4615461C461F
:10203000FFF78EFE012801D1BDE8F0813046FFF7A1
:1020400023FEFFF725FF012803D1FFF7CFFE012074
:10205000F2E73846FFF718FEFFF71AFFFFF7C6FE54
:10206000FFF776FE711CC8B2FFF70EFEFFF710FFF8
:10207000012803D1FFF7BAFE0120DDE70CE0FFF7EE
:102080009FFD2870012C02D1FFF730FD01E0FFF722
:10209000C3FC6D1C601EC4B2002CF0D1FFF7A6FE7D
:1020A0000020C9E708B54FF000700E4948600121D3
:1020B0000C2000F00DFD4FF44170ADF80000102031
:1020C0008DF8030003208DF8020069460648FFF7EB
:1020D00003F81020ADF8000069460448FEF7FCFF45
:1020E00008BD000000000140000C01400008014054
:1020F00000BFFEE72DE9F0479848007810B9FF20AF
:102100009749087096480078012806D0022811D017
:102110001F2819D0FF287DD1BBE000209149C8803D
:102120008880488008808D48007810B102208C4952
:10213000087000BF8C48808840F24C41884202DD24
:102140001F2087490870AFE087498988A1F57A7018
:10215000FEF7EDF906468548816A3046FEF706F837
:102160000546FEF7F2F904B27F488088B0F57F7F1C
:1021700006DA00207B49C88088804880088093E088
:10218000002C01DA002006E0B4F5617F02DD4FF497
:10219000617000E020467349C880888048800880CC
:1021A000734A916A734A906AFEF732F88046724821
:1021B000816A4046FEF72CF806466A49B1F90000EC
:1021C000FEF7B5F907463146FDF7D0FF0546FEF7A5
:1021D000BCF900B263490880654A916A654A906A11
:1021E000FDF7C4FF80466448816A4046FDF7BEFFA4
:1021F00006465C49B1F90200FEF799F907463146F7
:10220000FDF7B4FF0546FEF7A0F900B25549488036
:10221000584800E047E0806A80F000485448816AEE
:102220004046FDF7A3FF07465348816A3846FDF74D
:10223000EFFF06464B49B1F90400FEF778F98146F5
:102240003146FDF793FF0546FEF77FF900B2454999
:1022500088804848806A80F000484548816A404646
:10226000FDF7D6FF07464448816A3846FDF77EFFF2
:1022700006463C49B1F90600FEF759F98146314658
:10228000FDF774FF0546FEF760F900B23549C880D6
:102290000AE000203349C8808880488008800120F7
:1022A0002F49087000E000BF00BF2E48B0F90000C1
:1022B000002801DA00200BE02A48B0F90000B0F550
:1022C0007A7F02DD4FF47A7002E02648B0F9000010
:1022D0004FF0804188862348B0F90200002801DAD7
:1022E00000200BE01F48B0F90200B0F57A7F02DD54
:1022F0004FF47A7002E01B48B0F902004FF08041C1
:1023000008871848B0F90400002801DA00200BE023
:102310001448B0F90400B0F57A7F02DD4FF47A700A
:1023200002E01048B0F90400144908800D48B0F9E3
:102330000600002801DA00200BE00A48B0F9060088
:10234000B0F57A7F02DD4FF47A7002E00548B0F90B
:1023500006000A49091D0880BDE8F0874E000020EC
:10236000390000203000002078010020C002002049
:10237000BC01002088010020F0010020340400404E
:102380002DE9FE4F06236A463B21D020FFF74AFE87
:1023900006230DF106024321D020FFF743FE00245F
:1023A00058E0012000EB44001DF800001DF8141057
:1023B00040EA0120294931F81410401A00B2284996
:1023C000096821F81400032C1BDA2549096831F942
:1023D0001400FEF7ACF8054604EB4401214A02EB79
:1023E000C100294601F0F3FD04EB44011D4A02EB54
:1023F000C1018868FEF7A9F800B21949096821F8F7
:102400001400022C24DDE01EC5B2DFF85C80144904
:10241000096831F91400FEF78AF882464146FDF753
:10242000FDFE0746114951F825001149FDF7F6FE5A
:1024300081463946FDF79AFE0C4941F825000646CB
:10244000FEF783F800B20649096821F8140000BFBE
:10245000601CC4B2062CA4DBBDE8FE8F3403002050
:10246000780000207C0000209A99193E400300204B
:102470009A99593FF0B58BB0182105A8FDF76BFE6E
:102480001E25052677420020039004904048002135
:102490000160416081604FF400503D498880002216
:1024A00001213C4800F046FF3BE000BF0A2001F05C
:1024B0007DFDFFF765FF002416E037480168E01C4A
:1024C00031F8100003A931F81410401A00B201A924
:1024D00021F8140030480168E01C31F8100003A90D
:1024E00021F81400601C04B2032CE6DBBDF90400E3
:1024F0000528DBDCBDF9040010F1050FD6DBBDF9C2
:1025000006000528D2DCBDF9060010F1050FCDDB71
:10251000BDF908000528C9DCBDF9080010F1050F58
:10252000C4DB281EA5F10101CDB2BED1002417E005
:10253000FFF726FF642C11DB00200CE005A951F801
:102540002010154A126832F91020114405AA42F8E9
:102550002010411CC8B20628F0DB00BF601C04B28A
:10256000B4F5B27FE4DB002409E005A850F82400AC
:10257000001200B2064921F81400601C04B2062CB7
:10258000F3DB01221146034800F0D4FE0BB0F0BD8E
:1025900034030020000400407800002010B500241F
:1025A00000BF80226B21D020FFF71AFDC4B21E208D
:1025B00001F0FCFC02221921D020FFF711FD20447C
:1025C000C4B203226B21D020FFF70AFD2044C4B21D
:1025D00003221A21D020FFF703FD2044C4B21822A1
:1025E0001B21D020FFF7FCFC2044C4B209221C218F
:1025F000D020FFF7F5FC2044C4B2002CD1D17521C6
:10260000D020FFF7BBFCC4B2682C01D0012010BD64
:10261000FFF730FF0020FAE7704700001FB510A158
:1026200003C9CDE90201052202A9302000F0BAF861
:1026300005226946102000F063F8002406E01DF82A
:102640000400A52800D003E0601CC4B2052CF6DB12
:1026500000BF052C02D0012004B010BD0020FBE714
:10266000A5A5A5A5A500000008B50121084600F014
:102670002FFA01211F48FEF7BBFD01210C2000F0BD
:1026800027FA10208DF8030003208DF80200402067
:10269000ADF8000069461848FEF71EFD4FF40040F3
:1026A000ADF8000069461548FEF716FD40201249B6
:1026B00010310860400211491031086048208DF83F
:1026C000030003208DF802008020ADF80000694669
:1026D0000A48FEF701FD80210748FEF7D1FD00F012
:1026E00065FB402004491431086040020349103161
:1026F000086008BD00023000000C014000080140E5
:102700002DE9F04107460D4616464FF400400C49AE
:102710000860384600F0D4FB8046002405E0FF2026
:1027200000F0CEFB2855601CC4B2B442F7DB4FF476
:1027300000400349091F08604046BDE8F0810000E1
:102740001408014070B504464FF400400749086082
:10275000204600F0B5FBFF2000F0B2FB05464FF429
:1027600000400249091F0860284670BD1408014056
:1027700070B504460720FFF7E5FF054629462720E8
:1027800000F032F805F0400050B1202221466120CF
:10279000FFF7B6FFFF21E22000F026F8002070BD11
:1027A0000120FCE72DE9F04107460C4615464FF4A1
:1027B00000400C490860384600F082FB8046002645
:1027C00005E014F8010B00F07BFB701CC6B2AE42B2
:1027D000F7DB4FF400400349091F08604046BDE89D
:1027E000F08100001408014070B505460C464FF416
:1027F000004008490860284600F062FB0646204673
:1028000000F05EFB4FF400400249091F08603046AB
:1028100070BD00001408014010B5FFF725FF00BF90
:1028200000F08EFAFFF7FAFE0128F9D010BD000083
:1028300070B5002100230F22C47804B3154C24681E
:1028400004F4E064C4F5E064210AC1F10403CA4061
:10285000447804FA03F184781440214309010E4CB2
:102860000678A155047804F01F050124AC400578D2
:102870006D11AD0005F1E025C5F8004109E00478CF
:1028800004F01F050124AC40044D0678761145F88C
:10289000264070BD0CED00E000E400E080E100E0C7
:1028A00002490143024A1160704700000000FA0526
:1028B0000CED00E04FF080400F4908610F490861BE
:1028C0004FF081400E49086100200B4948610B49D7
:1028D00048610B4948610B4807498861074988618D
:1028E0004FF07C500649886107480849086108494B
:1028F000086108490861704788010020BC01002078
:10290000F00100200AD7A33D0000E040240200208F
:10291000580200208C020020704700004B480068DD
:102920004B490968401A4B490988884200D27047D0
:1029300046480068464908604648807806287ED2A6
:10294000DFE800F02B03103B4D614FF4007042496B
:10295000086010204149086040013F490860042098
:10296000086070E03D48001F006880F010003B499F
:10297000091F08603848001F006880F4007036495D
:10298000091F08600846006880F0040008600846D7
:10299000006880F48070086055E04FF400702E49A4
:1029A000091D086010202D49091D086000012A49F1
:1029B000091D08600420086045E04FF400702649B6
:1029C000086010202549091D08600001224908609F
:1029D0000420091D086002201E49887033E0102081
:1029E0001E49091D086004201B49091D08601A487A
:1029F000001F006880F400701749091F08606420F8
:102A0000144908801FE04FF400701349091D086045
:102A1000401008601148001F006880F010000F4946
:102A2000091F08600C48001F006880F004000A4974
:102A3000091F086046200749088004E0FFE70120DD
:102A40000449887000BF00BF00BF70E74400002049
:102A50007400002070000020100C0140100801409C
:102A60002DE9F05F04464FF07F594FF07C5120462E
:102A7000FDF7D4FB824625462E460C48A0EB6606A1
:102A8000354629465046FDF7C9FB83462946FDF7E2
:102A9000C5FB80464946FDF7BEFB07462946FDF7C4
:102AA000BDFB05462846BDE8F09F0000DF59375FB3
:102AB00029B1064AD2690243044BDA6104E0034AB1
:102AC000D2698243014BDA61704700000010024076
:102AD00029B1064A92690243044B9A6104E0034A11
:102AE00092698243014B9A617047000000100240D6
:102AF00030B500210022002400232D4D6D6805F023
:102B00000C0121B1042905D0082923D105E0294D64
:102B1000056022E0274D05601FE0254D6D6805F436
:102B20007012234D6D6805F48034022505EB924246
:102B30001CB9214D554305600BE01D4D6D6805F432
:102B400000351DB11C4D5543056002E0194D55433C
:102B5000056002E0174D056000BF00BF144D6D68B1
:102B600005F0F0010909154D6B5C0568DD40456015
:102B70000F4D6D6805F4E061090A104D6B5C456806
:102B8000DD4085600A4D6D6805F46051C90A0B4D42
:102B90006B5C4568DD40C560054D6D6805F44041DE
:102BA000890B074D6B5CC568B5FBF3F5056130BD5E
:102BB0000010024000127A0000093D00C40000200D
:102BC000D40000202DE9F04155488078012804D137
:102BD00053480088401C524908805248FFF7C8FDFE
:102BE00000287DD101204E498870002008800025F2
:102BF0004D490880002405E04A48005D2844C5B2DC
:102C0000601CC4B21F2CF7DB4648C07FA84268D1C5
:102C100044480078AA28FAD142484078AF287CD1AD
:102C2000404840793F49097940EA01203F490880FE
:102C30003C48C0793B49897940EA01203B494880BA
:102C40003848407A3749097A40EA01203749888074
:102C50003448C07A3349897A40EA01203349C88030
:102C60003048407B2F49097B40EA01202F490881E9
:102C70002C48C07B2B49897B40EA01202B494881A5
:102C80002848407C2749097C40EA0120274988815F
:102C90002448C07C2349897C40EA01202349C8811B
:102CA000234E498840F2DC52501AFDF740FC07469B
:102CB0003146FDF7B3FA1F4908601C49098840F204
:102CC000DC52501AFDF733FC07463146FDF7A6FAF1
:102CD000194908601548C08840F21C71884201E01B
:102CE0001CE01AE008DD154908684FF07D51FDF73A
:102CF0003DFA124908600DE00C48C08840F29C4142
:102D0000884207DA0D4908684FF07D51FDF780FAD7
:102D10000A49086001F064FA00BF00BFBDE8F08115
:102D200002000020F00000200A00002078010020AE
:102D30000AD7233D24020020580200208C020020E4
:102D400010B5402011490860052211492A20FFF7DB
:102D500029FD01212120FFF747FD01212220FFF756
:102D600043FD2D212520FFF73FFD20213120FFF7D6
:102D70003BFD0F212620FFF737FD0F212020FFF715
:102D800033FD40200149091F086010BD140C0140AB
:102D90007143000821B1028842F04002028004E041
:102DA00002884FF6BF731A400280704700B587B0A3
:102DB00001210C20FFF78CFE01210820FFF788FE7F
:102DC00001210846FFF784FE01210803FFF780FE7A
:102DD00001212148FEF70CFA01210846FEF708FA06
:102DE0004FF400411D48FEF74BFA3820ADF80400BF
:102DF00003208DF8060018208DF8070001A9184857
:102E0000FEF76AF900211748FFF7C4FF0020ADF86C
:102E100008004FF48270ADF80A000020ADF80C00F5
:102E2000ADF80E00ADF810004FF40070ADF81200D0
:102E30001020ADF814000020ADF816000720ADF802
:102E4000180002A9074800F01DF801210548FFF706
:102E5000A1FF07B000BD00000002300000080140E3
:102E6000000C0140003001400246002013890B4055
:102E70000BB1012000E000207047014688897047AF
:102E80008181704710B50022028802F441520B88FC
:102E90004C8823438C882343CC8823430C892343C9
:102EA0004C8923438C892343CC8923431A430280D2
:102EB000838B4FF2FF74234083830B8A038210BD00
:102EC00010B5044600BF02210A48FFF7CDFF0028D5
:102ED000F9D021460748FFF7D3FF00BF012105487D
:102EE000FFF7C2FF0028F9D00248FFF7C6FFC0B2C3
:102EF00010BD000000300140704710B500F002F82E
:102F000010BD00000CB5002001900090334800680F
:102F100040F480303149086000BF3048006800F458
:102F2000003000900198401C0190009818B9019859
:102F3000B0F5A06FF1D12948006800F4003010B15D
:102F40000120009001E0002000900098012843D16A
:102F50002348006840F010002149086008460068D6
:102F600020F0030008600846006840F00200086096
:102F70001A48406819494860084640684860084651
:102F8000406840F4806048600846406820F47C1047
:102F900048600846406840F4E81048600846006809
:102FA00040F08070086000BF0C48006800F00070BE
:102FB0000028F9D00948406820F00300074948601C
:102FC0000846406840F00200486000BF034840687F
:102FD00000F00C000828F9D10CBD000000100240E0
:102FE0000020024002480068401C01490860704708
:102FF0004400002010B51348006840F0010011495A
:10300000086008464068104908400E494860084674
:1030100000680E4908400B4908600846006820F423
:10302000802008600846406820F4FE0048604FF4A5
:103030001F008860FFF761FF4FF0006004490860DF
:1030400010BD0000001002400000FFF8FFFFF6FE78
:1030500008ED00E000B589B001210420FFF738FD3C
:103060000320ADF804008DF8060018208DF8070045
:1030700001A91F48FEF730F801210846FFF718FDA7
:1030800040F2E730ADF81C000820ADF81800002031
:10309000ADF81E00ADF81A0006A94FF0804000F010
:1030A00009FA6020ADF808000120ADF80A00002000
:1030B000ADF80E00ADF8100002A94FF0804000F00E
:1030C00043F90821C80600F08BF902A94FF08040AF
:1030D00000F090F90821C80600F0DEF90121880708
:1030E00000F0FCF80121880700F007F909B000BDE5
:1030F0000008014000B589B001210420FFF7E8FC79
:10310000C020ADF8040003208DF8060018208DF8CB
:10311000070001A91D48FDF7DFFF01210220FFF78D
:10312000C7FC40F2E730ADF81C000820ADF81800ED
:103130000020ADF81E00ADF81A0006A9144800F0F2
:10314000B9F96020ADF808000120ADF80A000020B0
:10315000ADF80E00ADF8100002A90D4800F0F4F82B
:1031600008210B4800F03CF902A9094800F042F997
:103170000821074800F090F90121054800F0AEF859
:103180000121034800F0B9F809B000BD0008014072
:10319000000400401FB501210420FFF789FC1E2018
:1031A0008DF8000001208DF8010003208DF8020049
:1031B00001208DF803006846FFF73AFB40F22B1020
:1031C000ADF8080040F2CF20ADF804000020ADF8C3
:1031D0000A00ADF8060001A9064800F06BF90122CB
:1031E0001146044800F0A6F80121024800F085F8D5
:1031F0001FBD00000008004010B501212C4800F060
:1032000088F8002853D02B480068401C29490860E2
:1032100029480078401C2849087028480078401C3C
:10322000264908702648C07801281DD12448808886
:10323000401C2349888008468088B0F5966F16DDCB
:103240000020C8708880088088701E4908704FF47C
:1032500096701D49088002208870FFF7DDFAFFF79D
:10326000F9FEFFF747FF02E0002015498880124869
:10327000007801280BD100200F490870FFF780F873
:10328000FFF7A0FC1148FDF787FEFEF733FF0B4860
:103290000078022807D10020084908700C4A0D491F
:1032A0000D48FDF7EFFF0121014800F023F810BDA4
:1032B0000008004044000020000000200100002021
:1032C000020000204E00002070000020A69B443B1E
:1032D000B020CD3B6C0100206001002021B10288AC
:1032E00042F08002028004E002884FF67F731A40A9
:1032F00002807047CA430282704721B1028842F0BF
:103300000102028004E002884FF6FE731A40028038
:10331000704730B50246002000230024158A05EAD4
:103320000103958905EA010413B10CB1012000E005
:10333000002030BD1AB183890B43838102E0838969
:103340008B4383817047000070B500240022002366
:10335000058C4FF6FE7635400584028C8388048BFD
:103360004FF68F752C40B51E2C400D882C43751ED2
:103370002A400D892A434D882A43144DA8420BD078
:10338000134DA84208D0134DA84205D0124DA842B3
:1033900002D0124DA84213D14FF6F7752A404D893D
:1033A0002A434FF6FB752A408D882A434FF6FF6566
:1033B0002B404FF6FF552B408D892B43CD892B4356
:1033C00083800483CD888586028470BD002C0140F3
:1033D00000340140004001400044014000480140E9
:1033E0000A460021018B4FF6F77319401143018300
:1033F0007047000070B5002400220023058C4FF6B2
:10340000EF7635400584028C8388048B48F6FF757F
:103410002C404FF6FF452C400D884FF6FF7606EA0C
:1034200005252C434FF6DF752A400D8906EA051560
:103430002A434D8806EA05152A43154DA84202D0B5
:10344000144DA8421DD14FF67F752A404D894FF685
:10345000FF7606EA05152A434FF6BF752A408D8888
:1034600006EA05152A434FF6FF352B404FF2FF754C
:103470002B408D8906EA85052B43CD8906EA850513
:103480002B4383800483CD880587028470BD0000B0
:10349000002C0140003401400A460021018B4FF20C
:1034A000FF7319404FF6FF7303EA022319430183A8
:1034B00070470000002202881D4B98420ED01D4B21
:1034C00098420BD0B0F1804F08D01B4B984205D0EA
:1034D0001A4B984202D01A4B984204D14FF68F7380
:1034E0001A404B881A43174B984207D0164B984204
:1034F00004D04FF6FF431A40CB881A4302808B88D2
:1035000083850B8803850A4B98420BD0094B984260
:1035100008D00E4B984205D00D4B984202D00D4B6F
:10352000984201D10B7A0386012383827047000001
:10353000002C01400034014000040040000800401D
:10354000000C00400010004000140040004001400A
:10355000004401400048014000B587B0012144F219
:103560000400FFF7B5FA25208DF8040000208DF83F
:1035700005008DF8060001208DF8070001A8FFF76F
:1035800057F94FF40070ADF8180018208DF81B00A3
:1035900003208DF81A0006A91548FDF79DFD4FF48C
:1035A0008060ADF8180004208DF81B0006A91048B3
:1035B000FDF792FD0F4802900020ADF80C00ADF829
:1035C0000E00ADF81000ADF814000C20ADF812009C
:1035D00002A9094800F0DEF8012240F22551064810
:1035E00000F0B2F80121044800F0A2F807B000BDD5
:1035F0000008014020A107000038014070B53C4898
:1036000000883B48008840F22551084000286ED0D1
:103610003748001D008840B23649374A127888542E
:103620003548007810B101281AD10AE0314890F9E4
:103630000000563020B930480078401C2E490870F0
:1036400054E02C4890F90100513028B92A480078FC
:10365000401C2949087002E000202749087045E015
:10366000244890F90300001D23490978884205DDAC
:1036700021480078401C2049087037E000250024CC
:1036800005E01C48005D284445B2601CC4B21A48DD
:1036900000788442F5DB1748174909784056A8425C
:1036A0001CD11448807815490871084645710020DE
:1036B0008871002409E0114880791049095D0844A7
:1036C00040B20E498871601CC4B2062CF3DB07219E
:1036D0000A4800F015F80748FDF770F90020064980
:1036E000087004490870487000BF00BF00BF70BD7B
:1036F00000380140460100203C0000203D00002031
:1037000070B505460E4600240DE000BF074800884E
:1037100000F080000028F9D0285781B2034800F05B
:10372000A5F8601CC4B2B442EFDB70BD00380140A4
:1037300021B1828942F40052828104E082894DF6EF
:10374000FF731A4082817047F0B5034600240026BB
:103750000025002040F66A17B94200D100BF184684
:10376000C1F3421401F01F06012707FA06F5012CE8
:1037700001D10C3004E0022C01D1103000E01430F3
:103780001AB107682F43076002E00768AF4307607C
:10379000F0BD00002DE9F04786B005460E46002436
:1037A000A24600BFA1460027B08900B100BF2F4646
:1037B0002C8A4CF6FF700440F08804432C82AC89BC
:1037C0004EF6F3100440B0883189084371890843EC
:1037D0000443AC81AC8A4FF6FF400440B0890443F7
:1037E000AC8201A8FFF784F91F48874202D1DDF8B7
:1037F00010A001E0DDF80CA0A88900F4004040B161
:103800000AEBCA0000EB0A1031684900B0FBF1F87E
:1038100007E00AEBCA0000EB0A1031688900B0FB30
:10382000F1F86420B8FBF0F004012009642101FBE9
:103830001089A88900F4004040B1322000EBC90093
:10384000B0FBF1F000F00700044308E0322000EB89
:1038500009106421B0FBF1F000F00F0004432C814B
:1038600006B0BDE8F087000000380140C1F308024F
:103870008280704700BFFEE7490050EAC12018BFB0
:1038800004204A0D18BF40F0010040F2FF72B2EB75
:10389000515F08BF40F00200012808BF05207047B3
:1038A0002DE9F0414F1E00EBC7010446D1E90001AC
:1038B00015461E4637F006020DD02A463346FCF761
:1038C000C4FD7F1E04EBC703D3E90023FCF716FDFC
:1038D00037F00602F1D1022F25D0042F13D0062F86
:1038E00018BFBDE8F0812A463346FCF7AEFDD4E9A7
:1038F0000A23FCF703FD2A463346FCF7A6FDD4E96C
:103900000823FCF7FBFC2A463346FCF79EFDD4E96E
:103910000623FCF7F3FC2A463346FCF796FDD4E970
:103920000423FCF7EBFC2A463346FCF78EFDD4E972
:103930000223FCF7E3FC2A463346FCF786FDD4E974
:103940000023BDE8F041FCF7D9BC0122FCF796BF8B
:10395000FCF7D4BC0022134610461146FCF71FBFEB
:10396000024A00201107FCF789BF000001FDFFFF9C
:1039700002E008C8121F08C1002AFAD17047704738
:10398000002001E001C1121F002AFBD17047000096
:103990000149086070470000EC0000202DE9F04D5F
:1039A0008D4F21F0004A86B005460C46BA452ADB09
:1039B000AAEB070028430AD08848824501DC1AD1C7
:1039C000CDB106B02846BDE8F04DFFF7BEBF844A32
:1039D000844B2846FCF739FD07460E46824A834B46
:1039E00028462146FCF731FD06B03A463346BDE88D
:1039F000F04DFCF783BC0120FFF7CAFF06B0BDE81D
:103A0000F04DFFF7A7BF7A48824542DABAF1795FF5
:103A10000BDA2846FFF730FF042808BFFFF7A0FFA6
:103A2000284606B02146BDE8F08D2A460B461046D2
:103A3000FCF70BFD834602466E480E460B460621F8
:103A40007844FFF72DFF5A463346FCF7FEFC8046CC
:103A500069488A465A46334604217844FFF720FFD6
:103A60005A463346FCF7F1FC00223B46FCF746FC85
:103A700002460B4640465146FCF791FE2A46234635
:103A8000FCF7E3FC06B02A462346BDE8F04DFCF700
:103A900035BC284624F0004100223D463B46FCF759
:103AA000D1FC4FF0FF32FCF7E9FE064602465348D0
:103AB0000F460B4606217844FFF7F2FE32463B469E
:103AC000FCF7C3FCCDE900014D4832463B460421DA
:103AD0007844FFF7E5FE32463B46FCF7B6FC002291
:103AE0002B46FCF70BFC834602913046394600F02A
:103AF0000BFC804643480D46504517DCDDE90001CC
:103B00005A46029BFCF74BFE42462B46FCF79DFCB7
:103B100042462B46FCF7F2FB0122FCF7AFFE304A8F
:103B2000304BFCF78CFC304A304B4CE04FF0000A35
:103B300052460B464046FCF7E1FBCDE903105246E6
:103B40002B4610461946FCF780FC32463B46FCF7F4
:103B500079FCDDE90332FCF722FE06460F46DDE97B
:103B600000015A46029BFCF71AFE8346009101228F
:103B700030463946FCF782FE194A1A4BFCF762FCC4
:103B800006460F46012240462946FCF777FE5A4674
:103B9000009BFCF75AFC32463B46FCF750FC0646BD
:103BA0000F46012250462946FCF768FE0E4DDFF80D
:103BB00058802A464346FCF745FC32463B46FCF714
:103BC00041FC2A464346FCF73DFC002CD8BF81F05F
:103BD000004106B0BDE8F08D0000F03F0000F07F2E
:103BE000075C143326A6913C182D4454FB21F93F61
:103BF0000000E03F340900004A090000BE08000050
:103C0000D40800003333EF3FFB21E93F2DE9F84FA3
:103C100004460D4621F0004000917349814211DCB9
:103C20007249884201DC06D12CB120462946BDE804
:103C3000F84FFFF78ABE6E48002DCCBF6D496E4924
:103C4000BDE8F88F6D49814211DD6D498142D8BFD1
:103C50004FF0FF366DDD20462946FFF70DFE0428A4
:103C600008BFFFF77DFE20462946BDE8F88F65496D
:103C7000654F25F00045814233DD6449814219DDFD
:103C8000002632464FF0804320462946FCF736FB9B
:103C900080468A46012220462946FCF7EFFD002295
:103CA0003B46FCF7CCFB42465346FCF778FD044606
:103CB0000D463EE001260022BA463B4620462946F4
:103CC000FCF71CFB80460F4600225346204629463F
:103CD000FCF7B5FB42463B46FCF761FD04460D464A
:103CE00027E04B4981421BDDDFF828A10226002294
:103CF000534620462946FCF7A8FB00223B46FCF72A
:103D0000FDFA80460F460022534620462946FCF71E
:103D100096FB42463B46FCF742FD04460D4608E052
:103D2000032622462B4600203B49FCF738FD04467B
:103D30000D4622462B4610461946FCF786FB8B465D
:103D4000824602460B46FCF780FB07460246334894
:103D500088460B4606217844FFF7A2FD52465B4693
:103D6000FCF773FB82462E488B463A4643460521B4
:103D70007844FFF795FD3A464346FCF766FB02465A
:103D80000B46002E504659460CDAFCF7B7FA22468D
:103D90002B46FCF75AFB01B022462B46BDE8F04FFC
:103DA000FCF750BBFCF7AAFA22462B46FCF74DFB6A
:103DB0001C4A7A4402EBC603D3E90023FCF73FFB1D
:103DC00022462B46FCF73BFB174A7A4402EBC6031C
:103DD000D3E90023FCF736FB009A002AB8BF81F034
:103DE0000041BDE8F88F0000000010440000F07FA3
:103DF000182D4454FB21F93FFB21F9BF0000DC3FA3
:103E00000000203E0000F33F0000F03F0000E63FCE
:103E1000008003400000F83F0000F0BFD60600001D
:103E20009406000032060000FA0500002DE9F04D6E
:103E30009446CCF1000423F000464CEA0404524FAF
:103E400046EAD4749A46884621F00042BC4206D81D
:103E5000454240EA050442EAD474BC4204D9BDE8B4
:103E6000F04D6246FFF774BDAAF14055A5F17F659C
:103E700055EA0C040BD0022404EAAA74434DDFF87F
:103E800010E144EAD87452EA000B04D00CE0BDE81B
:103E9000F04DFFF7BBBE002C14BF012CBDE8F08D28
:103EA000022C30D0032C32D056EA0C0B0AD0BE4282
:103EB00020D1BA4209D126F0804622F08042334612
:103EC000114617E000291ADB25E0DFF8C8B0FB44F3
:103ED000002C04BFDBE90001BDE8F08D012C02BF1E
:103EE000DBE9000181F00041BDE8F08D022C0AD031
:103EF000032C0CD0BA4212D1B8F1000F0BDA2348D0
:103F00002549BDE8F08D28462449BDE8F08D2846B6
:103F10007146BDE8F08D1D482149BDE8F08D921B2A
:103F200012153C2AC4BF19481D490EDCBAF1000F16
:103F3000BEBF12F13C0F0020014606DB6246FCF7D3
:103F40002EFC21F00041FFF761FE002C08BFBDE808
:103F5000F08D012C04BF81F00041BDE8F08D114AC5
:103F6000114B022C07D0FCF76AFA2A46BDE8F04D47
:103F70000A4BFCF764BAFCF762FA2A46BDE8F04D3A
:103F8000064BFCF75FBA00000000F07F182D445488
:103F9000FB2109C08E050000FB21F9BFFB21094070
:103FA000FB21F93F075C143326A6A13C30B504463B
:103FB000FDF70EFD054600BFFDF70AFD401B04EBB3
:103FC0004401C1EBC411B0EBC10FF5D330BD2DE9F5
:103FD000F04104460D4621692068FCF7C7F860608F
:103FE00061696068FCF7C2F8064631466068FCF714
:103FF00047F9E0602846A168FCF70AF90746E1683E
:10400000FCF70CF90646A168FCF7B0F8A0604FF089
:104010007E50E168FCF7FCF806466168FCF7FEF8A4
:104020002060BDE8F0810000FCF7A2FF4FF4A06023
:10403000FEF736FC3B4800684FF47A72B0FBF2F1B1
:10404000B1F1807F00D31DE021F07F40401E4FF092
:10405000E022506150170F22002807DA13071D0EC7
:10406000314B00F00F04241F1D5503E013071C0EF5
:104070002E4B1C5400BF00204FF0E022906107201F
:10408000106100BFFCF785FC4AE0FCF733FEFEF749
:1040900045FC2748007801282AD126494868FCF7C2
:1040A0006DFA21F0004104460022234BFCF77AFA16
:1040B0000BD320490868FCF761FA21F0004104465F
:1040C00000221D4BFCF76EFA12D200201B49C8706B
:1040D0008880088088701649087064201849088014
:1040E00002208870FEF798FBFEF7B4FFFFF702F896
:1040F00012480088C82813DD1048807801280FD1A5
:104100000E49C8700F48808840F24651884203DB50
:1041100008460C49888003E04FF47A70094988808A
:10412000B3E70000D800002018ED00E000E400E054
:104130004E0000206C010020008051400200002051
:10414000700000207801002010B5024600200EE02B
:10415000002352F82040E36052F82040A36052F858
:104160002040A36252F820406360431CD8B28842CA
:10417000EEDB10BD2DE9F05F04460E46616A206853
:10418000FCF746F8054631462846FCF747F88046D6
:10419000E168FBF7EBFFE060A1682846FCF738F820
:1041A00080463146FCF76CF80746A0693946FCF7B3
:1041B00035F88146E1686069FCF730F8824620698D
:1041C0002946FCF72BF883465146FBF7CFFF804684
:1041D0004946FBF7CBFFA062A560BDE8F09F000059
:1041E000434800781F2805D14248807810B9012043
:1041F0003F49087040488088B0F5966F07DA3E481E
:10420000C088B0F5966F02DAFF2039490870384847
:104210000078032828D004DC012807D0022860D1C8
:104220000EE01F2830D0FF285BD14BE03248808859
:1042300040F27E41884202DA02202D49087054E0A3
:104240002D488088B0F5E16F0DDD2C480088401CBA
:104250002A49088008460088052804DD00200880D7
:1042600003202349087040E02348808840F27E41C3
:10427000884208DA0120224908700020214988700C
:104280001F201B49087030E01B488088B0F57F7FF5
:104290000DDA1A4801880088401C184A108044F63C
:1042A000206081420DDDFF201149087009E01448AB
:1042B000007818B9FF200E49087002E000200F496D
:1042C000088012E000200D49088002200D49887006
:1042D0006420088000200A49087001200449087001
:1042E00003E0FF200249087000BF00BF70470000D4
:1042F0000800002002000020780100200C000020AF
:104300004E000020700000202DE9F04106460F46C7
:10431000FCF7EEFA041E0D4618BF0120284320F0DA
:104320000040C0F17F6000F1E040C00F0ED0301CB3
:1043300018BF0120384320F00040C0F17F6000F139
:10434000E040C00F04BF0120FFF722FB20462946B2
:10435000BDE8F081DB0F4940E12E654235FA8E3C25
:10436000F6FF793D2E9E8B3AD80FC93F1122334478
:104370005511223344550000555555555555C53FE7
:104380007D6FEB0312D6D4BF5544880E55C1C93F8B
:104390003B8F68B52882A4BF88B20175E0EF493F22
:1043A00009F7FD0DE13D023F4B2D8A1C273A03C062
:1043B000C88A599CE52A004059018D1B6C06E6BF4E
:1043C00082922EB1C5B8B33F4FBB610567ACDD3FEC
:1043D000182D4454FB21E93F9BF681D20B73EF3F2C
:1043E000182D4454FB21F93FE2652F227F2B7A3CA4
:1043F000075C143326A6813CBDCBF07A8807703C5D
:10440000075C143326A6913CC4EB98999999C9BFCF
:10441000711623FEC671BCBF6D9A74AFF2B0B3BF04
:104420009AFDDE522DDEADBF2F6C6A2C44B4A2BFC4
:104430000D5555555555D53FFF8300922449C23F30
:104440006E204CC5CD45B73F513DD0A0660DB13F64
:10445000EB0D76244B7BA93F11DA22E33AAD903F76
:104460000000000000000000884400080000002058
:10447000F00000007039000878450008F0000020C6
:104480006006000080390008000000000000000005
:10449000010000000000000088010020BC01002095
:1044A000F001002058020020240200208C0200208D
:1044B000C0020020F4020020000000000000000004
:1044C0000101000000AAAAEF0200000000000000A5
:1044D00000000000000000000000000000000000DC
:1044E000CDCC4C3F52499D390000803F0000000078
:1044F00000000000000000002C010200000000008D
:10450000600100200AD7A33C00000000000000006A
:10451000000000006F12833A0C020B3F0AD7A33C45
:104520000000000000000000000000006F12833A4D
:104530000C020B3F0AD7A33C000000000000000063
:10454000000000006F12833A0C020B3F00000000D5
:104550000102030401020304060708090204060815
:1045600000A24A0400000000000000000102030451
:08457000060708090000000025
:04000005080000ED02
:00000001FF
